{
  "_format": "hh-sol-artifact-1",
  "contractName": "RedPacket",
  "sourceName": "contracts/RedPacket.sol",
  "abi": [
    {
      "inputs": [],
      "name": "AlreadyClaimed",
      "type": "error"
    },
    {
      "inputs": [],
      "name": "ECDSAInvalidSignature",
      "type": "error"
    },
    {
      "inputs": [
        {
          "internalType": "uint256",
          "name": "length",
          "type": "uint256"
        }
      ],
      "name": "ECDSAInvalidSignatureLength",
      "type": "error"
    },
    {
      "inputs": [
        {
          "internalType": "bytes32",
          "name": "s",
          "type": "bytes32"
        }
      ],
      "name": "ECDSAInvalidSignatureS",
      "type": "error"
    },
    {
      "inputs": [],
      "name": "ETHTransferFailed",
      "type": "error"
    },
    {
      "inputs": [],
      "name": "InsufficientAllowance",
      "type": "error"
    },
    {
      "inputs": [],
      "name": "InvalidAmount",
      "type": "error"
    },
    {
      "inputs": [],
      "name": "InvalidCount",
      "type": "error"
    },
    {
      "inputs": [],
      "name": "InvalidSignature",
      "type": "error"
    },
    {
      "inputs": [],
      "name": "NotEligible",
      "type": "error"
    },
    {
      "inputs": [],
      "name": "PacketEmpty",
      "type": "error"
    },
    {
      "inputs": [],
      "name": "PacketExpired",
      "type": "error"
    },
    {
      "inputs": [],
      "name": "PacketNotExpired",
      "type": "error"
    },
    {
      "inputs": [],
      "name": "ReentrancyGuardReentrantCall",
      "type": "error"
    },
    {
      "inputs": [
        {
          "internalType": "address",
          "name": "token",
          "type": "address"
        }
      ],
      "name": "SafeERC20FailedOperation",
      "type": "error"
    },
    {
      "anonymous": false,
      "inputs": [
        {
          "indexed": true,
          "internalType": "bytes32",
          "name": "packetId",
          "type": "bytes32"
        },
        {
          "indexed": true,
          "internalType": "address",
          "name": "claimer",
          "type": "address"
        },
        {
          "indexed": false,
          "internalType": "uint256",
          "name": "amount",
          "type": "uint256"
        }
      ],
      "name": "Claimed",
      "type": "event"
    },
    {
      "anonymous": false,
      "inputs": [
        {
          "indexed": true,
          "internalType": "bytes32",
          "name": "packetId",
          "type": "bytes32"
        },
        {
          "indexed": true,
          "internalType": "address",
          "name": "creator",
          "type": "address"
        },
        {
          "indexed": true,
          "internalType": "address",
          "name": "restrictedTo",
          "type": "address"
        },
        {
          "indexed": false,
          "internalType": "address",
          "name": "token",
          "type": "address"
        },
        {
          "indexed": false,
          "internalType": "uint256",
          "name": "totalAmount",
          "type": "uint256"
        },
        {
          "indexed": false,
          "internalType": "uint256",
          "name": "count",
          "type": "uint256"
        },
        {
          "indexed": false,
          "internalType": "uint256",
          "name": "expiresAt",
          "type": "uint256"
        },
        {
          "indexed": false,
          "internalType": "string",
          "name": "message",
          "type": "string"
        }
      ],
      "name": "PacketCreated",
      "type": "event"
    },
    {
      "anonymous": false,
      "inputs": [
        {
          "indexed": true,
          "internalType": "bytes32",
          "name": "packetId",
          "type": "bytes32"
        },
        {
          "indexed": true,
          "internalType": "address",
          "name": "creator",
          "type": "address"
        },
        {
          "indexed": false,
          "internalType": "uint256",
          "name": "amount",
          "type": "uint256"
        }
      ],
      "name": "Refunded",
      "type": "event"
    },
    {
      "inputs": [
        {
          "internalType": "bytes32",
          "name": "_packetId",
          "type": "bytes32"
        },
        {
          "internalType": "bytes",
          "name": "_signature",
          "type": "bytes"
        }
      ],
      "name": "claim",
      "outputs": [],
      "stateMutability": "nonpayable",
      "type": "function"
    },
    {
      "inputs": [
        {
          "internalType": "address",
          "name": "_token",
          "type": "address"
        },
        {
          "internalType": "uint256",
          "name": "_totalAmount",
          "type": "uint256"
        },
        {
          "internalType": "uint256",
          "name": "_count",
          "type": "uint256"
        },
        {
          "internalType": "bool",
          "name": "_isRandom",
          "type": "bool"
        },
        {
          "internalType": "address",
          "name": "_signerPtr",
          "type": "address"
        },
        {
          "internalType": "address",
          "name": "_restrictedTo",
          "type": "address"
        },
        {
          "internalType": "uint256",
          "name": "_duration",
          "type": "uint256"
        },
        {
          "internalType": "string",
          "name": "_message",
          "type": "string"
        }
      ],
      "name": "createPacket",
      "outputs": [
        {
          "internalType": "bytes32",
          "name": "",
          "type": "bytes32"
        }
      ],
      "stateMutability": "payable",
      "type": "function"
    },
    {
      "inputs": [
        {
          "internalType": "bytes32",
          "name": "",
          "type": "bytes32"
        },
        {
          "internalType": "address",
          "name": "",
          "type": "address"
        }
      ],
      "name": "hasClaimed",
      "outputs": [
        {
          "internalType": "bool",
          "name": "",
          "type": "bool"
        }
      ],
      "stateMutability": "view",
      "type": "function"
    },
    {
      "inputs": [
        {
          "internalType": "bytes32",
          "name": "",
          "type": "bytes32"
        }
      ],
      "name": "packets",
      "outputs": [
        {
          "internalType": "address",
          "name": "creator",
          "type": "address"
        },
        {
          "internalType": "address",
          "name": "token",
          "type": "address"
        },
        {
          "internalType": "uint256",
          "name": "balance",
          "type": "uint256"
        },
        {
          "internalType": "uint256",
          "name": "initialBalance",
          "type": "uint256"
        },
        {
          "internalType": "uint256",
          "name": "count",
          "type": "uint256"
        },
        {
          "internalType": "uint256",
          "name": "initialCount",
          "type": "uint256"
        },
        {
          "internalType": "bool",
          "name": "isRandom",
          "type": "bool"
        },
        {
          "internalType": "uint256",
          "name": "expiresAt",
          "type": "uint256"
        },
        {
          "internalType": "address",
          "name": "signerPtr",
          "type": "address"
        },
        {
          "internalType": "address",
          "name": "restrictedTo",
          "type": "address"
        },
        {
          "internalType": "string",
          "name": "message",
          "type": "string"
        }
      ],
      "stateMutability": "view",
      "type": "function"
    },
    {
      "inputs": [
        {
          "internalType": "bytes32",
          "name": "_packetId",
          "type": "bytes32"
        }
      ],
      "name": "refund",
      "outputs": [],
      "stateMutability": "nonpayable",
      "type": "function"
    }
  ],
  "bytecode": "0x608060405234801561001057600080fd5b506001600081905550612483806100286000396000f3fe60806040526004361061004a5760003560e01c80637249fbb61461004f5780637d8b4e0c1461007857806392a42d1d146100bf578063b5da5766146100fc578063f03310241461012c575b600080fd5b34801561005b57600080fd5b5061007660048036038101906100719190611715565b610155565b005b34801561008457600080fd5b5061009f600480360381019061009a9190611715565b610388565b6040516100b69b9a99989796959493929190611847565b60405180910390f35b3480156100cb57600080fd5b506100e660048036038101906100e19190611925565b6104f7565b6040516100f39190611965565b60405180910390f35b61011660048036038101906101119190611a3d565b610526565b6040516101239190611b22565b60405180910390f35b34801561013857600080fd5b50610153600480360381019061014e9190611b93565b610a97565b005b61015d6111cc565b60006001600083815260200190815260200160002090508060000160009054906101000a900473ffffffffffffffffffffffffffffffffffffffff1673ffffffffffffffffffffffffffffffffffffffff163373ffffffffffffffffffffffffffffffffffffffff16146101fd576040517f8baa579f00000000000000000000000000000000000000000000000000000000815260040160405180910390fd5b8060070154421161023a576040517f89c7b8c000000000000000000000000000000000000000000000000000000000815260040160405180910390fd5b6000816002015403610278576040517f5cc4167300000000000000000000000000000000000000000000000000000000815260040160405180910390fd5b60008160020154905060008260020181905550600082600401819055506103088260000160009054906101000a900473ffffffffffffffffffffffffffffffffffffffff16828460010160009054906101000a900473ffffffffffffffffffffffffffffffffffffffff1673ffffffffffffffffffffffffffffffffffffffff166112129092919063ffffffff16565b8160000160009054906101000a900473ffffffffffffffffffffffffffffffffffffffff1673ffffffffffffffffffffffffffffffffffffffff16837ff552ca82e113ac3c539c3d617f29fcd19c172a0c75dad017555c9e109f7fe183836040516103739190611bf3565b60405180910390a35050610385611291565b50565b60016020528060005260406000206000915090508060000160009054906101000a900473ffffffffffffffffffffffffffffffffffffffff16908060010160009054906101000a900473ffffffffffffffffffffffffffffffffffffffff16908060020154908060030154908060040154908060050154908060060160009054906101000a900460ff16908060070154908060080160009054906101000a900473ffffffffffffffffffffffffffffffffffffffff16908060090160009054906101000a900473ffffffffffffffffffffffffffffffffffffffff169080600a01805461047490611c3d565b80601f01602080910402602001604051908101604052809291908181526020018280546104a090611c3d565b80156104ed5780601f106104c2576101008083540402835291602001916104ed565b820191906000526020600020905b8154815290600101906020018083116104d057829003601f168201915b505050505090508b565b60026020528160005260406000206020528060005260406000206000915091509054906101000a900460ff1681565b60006105306111cc565b6000890361056a576040517f2c5211c600000000000000000000000000000000000000000000000000000000815260040160405180910390fd5b600088036105a4576040517f3492aef600000000000000000000000000000000000000000000000000000000815260040160405180910390fd5b600073ffffffffffffffffffffffffffffffffffffffff168a73ffffffffffffffffffffffffffffffffffffffff160361061657883414610611576040517f2c5211c600000000000000000000000000000000000000000000000000000000815260040160405180910390fd5b61073a565b6000341115610651576040517f2c5211c600000000000000000000000000000000000000000000000000000000815260040160405180910390fd5b60008a9050898173ffffffffffffffffffffffffffffffffffffffff1663dd62ed3e33306040518363ffffffff1660e01b8152600401610692929190611c6e565b602060405180830381865afa1580156106af573d6000803e3d6000fd5b505050506040513d601f19601f820116820180604052508101906106d39190611cac565b101561070b576040517f13be252b00000000000000000000000000000000000000000000000000000000815260040160405180910390fd5b61073833308c8473ffffffffffffffffffffffffffffffffffffffff1661129b909392919063ffffffff16565b505b600033428c8c8c8b8b6040516020016107599796959493929190611d42565b6040516020818303038152906040528051906020012090506040518061016001604052803373ffffffffffffffffffffffffffffffffffffffff1681526020018c73ffffffffffffffffffffffffffffffffffffffff1681526020018b81526020018b81526020018a81526020018a8152602001891515815260200186426107e19190611df2565b81526020018873ffffffffffffffffffffffffffffffffffffffff1681526020018773ffffffffffffffffffffffffffffffffffffffff16815260200185858080601f016020809104026020016040519081016040528093929190818152602001838380828437600081840152601f19601f820116905080830192505050505050508152506001600083815260200190815260200160002060008201518160000160006101000a81548173ffffffffffffffffffffffffffffffffffffffff021916908373ffffffffffffffffffffffffffffffffffffffff16021790555060208201518160010160006101000a81548173ffffffffffffffffffffffffffffffffffffffff021916908373ffffffffffffffffffffffffffffffffffffffff16021790555060408201518160020155606082015181600301556080820151816004015560a0820151816005015560c08201518160060160006101000a81548160ff02191690831515021790555060e082015181600701556101008201518160080160006101000a81548173ffffffffffffffffffffffffffffffffffffffff021916908373ffffffffffffffffffffffffffffffffffffffff1602179055506101208201518160090160006101000a81548173ffffffffffffffffffffffffffffffffffffffff021916908373ffffffffffffffffffffffffffffffffffffffff16021790555061014082015181600a0190816109ff9190612001565b509050508573ffffffffffffffffffffffffffffffffffffffff163373ffffffffffffffffffffffffffffffffffffffff16827ffacdcc3ad1bcb9560a56c47a4f43bdc1da795d6eb5896d6547ec92e94b79392d8e8e8e8b42610a629190611df2565b8b8b604051610a769695949392919061210f565b60405180910390a480915050610a8a611291565b9998505050505050505050565b610a9f6111cc565b60006001600085815260200190815260200160002090508060070154421115610af4576040517f04bdb12400000000000000000000000000000000000000000000000000000000815260040160405180910390fd5b600081600401541480610b0b575060008160020154145b15610b42576040517f5cc4167300000000000000000000000000000000000000000000000000000000815260040160405180910390fd5b6002600085815260200190815260200160002060003373ffffffffffffffffffffffffffffffffffffffff1673ffffffffffffffffffffffffffffffffffffffff16815260200190815260200160002060009054906101000a900460ff1615610bd7576040517f646cf55800000000000000000000000000000000000000000000000000000000815260040160405180910390fd5b600073ffffffffffffffffffffffffffffffffffffffff168160090160009054906101000a900473ffffffffffffffffffffffffffffffffffffffff1673ffffffffffffffffffffffffffffffffffffffff1614610cb9578060090160009054906101000a900473ffffffffffffffffffffffffffffffffffffffff1673ffffffffffffffffffffffffffffffffffffffff163373ffffffffffffffffffffffffffffffffffffffff1614610cb8576040517ff8eb54de00000000000000000000000000000000000000000000000000000000815260040160405180910390fd5b5b60008073ffffffffffffffffffffffffffffffffffffffff168260090160009054906101000a900473ffffffffffffffffffffffffffffffffffffffff1673ffffffffffffffffffffffffffffffffffffffff1614158015610d6a57508160090160009054906101000a900473ffffffffffffffffffffffffffffffffffffffff1673ffffffffffffffffffffffffffffffffffffffff163373ffffffffffffffffffffffffffffffffffffffff16145b905080610e845760008533604051602001610d8692919061218c565b6040516020818303038152906040528051906020012090506000610da98261131d565b90508360080160009054906101000a900473ffffffffffffffffffffffffffffffffffffffff1673ffffffffffffffffffffffffffffffffffffffff16610e348288888080601f016020809104026020016040519081016040528093929190818152602001838380828437600081840152601f19601f82011690508083019250505050505050611353565b73ffffffffffffffffffffffffffffffffffffffff1614610e81576040517f8baa579f00000000000000000000000000000000000000000000000000000000815260040160405180910390fd5b50505b60006001836004015403610e9e5782600201549050610f7c565b8260060160009054906101000a900460ff16610ecf5782600401548360020154610ec891906121e7565b9050610f7b565b600083600401548460020154610ee591906121e7565b90506000600282610ef69190612218565b42338760040154604051602001610f0f9392919061225a565b6040516020818303038152906040528051906020012060001c610f329190612297565b905060008114610f425780610f45565b60015b905084600201548110610f755760018560040154610f6391906122c8565b8560020154610f7291906122c8565b90505b80925050505b5b6001836004016000828254610f9191906122c8565b9250508190555080836002016000828254610fac91906122c8565b9250508190555060016002600088815260200190815260200160002060003373ffffffffffffffffffffffffffffffffffffffff1673ffffffffffffffffffffffffffffffffffffffff16815260200190815260200160002060006101000a81548160ff021916908315150217905550600073ffffffffffffffffffffffffffffffffffffffff168360010160009054906101000a900473ffffffffffffffffffffffffffffffffffffffff1673ffffffffffffffffffffffffffffffffffffffff160361111d5760003373ffffffffffffffffffffffffffffffffffffffff168260405161109a9061232d565b60006040518083038185875af1925050503d80600081146110d7576040519150601f19603f3d011682016040523d82523d6000602084013e6110dc565b606091505b5050905080611117576040517fb12d13eb00000000000000000000000000000000000000000000000000000000815260040160405180910390fd5b5061116d565b61116c33828560010160009054906101000a900473ffffffffffffffffffffffffffffffffffffffff1673ffffffffffffffffffffffffffffffffffffffff166112129092919063ffffffff16565b5b3373ffffffffffffffffffffffffffffffffffffffff16867f0508a8b4117d9a7b3d8f5895f6413e61b4f9a2df35afbfb41e78d0ecfff1843f836040516111b49190611bf3565b60405180910390a35050506111c7611291565b505050565b600260005403611208576040517f3ee5aeb500000000000000000000000000000000000000000000000000000000815260040160405180910390fd5b6002600081905550565b61128c838473ffffffffffffffffffffffffffffffffffffffff1663a9059cbb8585604051602401611245929190612342565b604051602081830303815290604052915060e01b6020820180517bffffffffffffffffffffffffffffffffffffffffffffffffffffffff838183161783525050505061137f565b505050565b6001600081905550565b611317848573ffffffffffffffffffffffffffffffffffffffff166323b872dd8686866040516024016112d09392919061236b565b604051602081830303815290604052915060e01b6020820180517bffffffffffffffffffffffffffffffffffffffffffffffffffffffff838183161783525050505061137f565b50505050565b60007f19457468657265756d205369676e6564204d6573736167653a0a33320000000060005281601c52603c6000209050919050565b6000806000806113638686611421565b925092509250611373828261147d565b82935050505092915050565b600080602060008451602086016000885af1806113a2576040513d6000823e3d81fd5b3d9250600051915050600082146113bd5760018114156113d9565b60008473ffffffffffffffffffffffffffffffffffffffff163b145b1561141b57836040517f5274afe700000000000000000000000000000000000000000000000000000000815260040161141291906123a2565b60405180910390fd5b50505050565b600080600060418451036114665760008060006020870151925060408701519150606087015160001a9050611458888285856115e1565b955095509550505050611476565b60006002855160001b9250925092505b9250925092565b60006003811115611491576114906123bd565b5b8260038111156114a4576114a36123bd565b5b03156115dd57600160038111156114be576114bd6123bd565b5b8260038111156114d1576114d06123bd565b5b03611508576040517ff645eedf00000000000000000000000000000000000000000000000000000000815260040160405180910390fd5b6002600381111561151c5761151b6123bd565b5b82600381111561152f5761152e6123bd565b5b03611574578060001c6040517ffce698f700000000000000000000000000000000000000000000000000000000815260040161156b9190611bf3565b60405180910390fd5b600380811115611587576115866123bd565b5b82600381111561159a576115996123bd565b5b036115dc57806040517fd78bce0c0000000000000000000000000000000000000000000000000000000081526004016115d39190611b22565b60405180910390fd5b5b5050565b60008060007f7fffffffffffffffffffffffffffffff5d576e7357a4501ddfe92f46681b20a08460001c11156116215760006003859250925092506116cb565b6000600188888888604051600081526020016040526040516116469493929190612408565b6020604051602081039080840390855afa158015611668573d6000803e3d6000fd5b505050602060405103519050600073ffffffffffffffffffffffffffffffffffffffff168173ffffffffffffffffffffffffffffffffffffffff16036116bc57600060016000801b935093509350506116cb565b8060008060001b935093509350505b9450945094915050565b600080fd5b600080fd5b6000819050919050565b6116f2816116df565b81146116fd57600080fd5b50565b60008135905061170f816116e9565b92915050565b60006020828403121561172b5761172a6116d5565b5b600061173984828501611700565b91505092915050565b600073ffffffffffffffffffffffffffffffffffffffff82169050919050565b600061176d82611742565b9050919050565b61177d81611762565b82525050565b6000819050919050565b61179681611783565b82525050565b60008115159050919050565b6117b18161179c565b82525050565b600081519050919050565b600082825260208201905092915050565b60005b838110156117f15780820151818401526020810190506117d6565b60008484015250505050565b6000601f19601f8301169050919050565b6000611819826117b7565b61182381856117c2565b93506118338185602086016117d3565b61183c816117fd565b840191505092915050565b60006101608201905061185d600083018e611774565b61186a602083018d611774565b611877604083018c61178d565b611884606083018b61178d565b611891608083018a61178d565b61189e60a083018961178d565b6118ab60c08301886117a8565b6118b860e083018761178d565b6118c6610100830186611774565b6118d4610120830185611774565b8181036101408301526118e7818461180e565b90509c9b505050505050505050505050565b61190281611762565b811461190d57600080fd5b50565b60008135905061191f816118f9565b92915050565b6000806040838503121561193c5761193b6116d5565b5b600061194a85828601611700565b925050602061195b85828601611910565b9150509250929050565b600060208201905061197a60008301846117a8565b92915050565b61198981611783565b811461199457600080fd5b50565b6000813590506119a681611980565b92915050565b6119b58161179c565b81146119c057600080fd5b50565b6000813590506119d2816119ac565b92915050565b600080fd5b600080fd5b600080fd5b60008083601f8401126119fd576119fc6119d8565b5b8235905067ffffffffffffffff811115611a1a57611a196119dd565b5b602083019150836001820283011115611a3657611a356119e2565b5b9250929050565b60008060008060008060008060006101008a8c031215611a6057611a5f6116d5565b5b6000611a6e8c828d01611910565b9950506020611a7f8c828d01611997565b9850506040611a908c828d01611997565b9750506060611aa18c828d016119c3565b9650506080611ab28c828d01611910565b95505060a0611ac38c828d01611910565b94505060c0611ad48c828d01611997565b93505060e08a013567ffffffffffffffff811115611af557611af46116da565b5b611b018c828d016119e7565b92509250509295985092959850929598565b611b1c816116df565b82525050565b6000602082019050611b376000830184611b13565b92915050565b60008083601f840112611b5357611b526119d8565b5b8235905067ffffffffffffffff811115611b7057611b6f6119dd565b5b602083019150836001820283011115611b8c57611b8b6119e2565b5b9250929050565b600080600060408486031215611bac57611bab6116d5565b5b6000611bba86828701611700565b935050602084013567ffffffffffffffff811115611bdb57611bda6116da565b5b611be786828701611b3d565b92509250509250925092565b6000602082019050611c08600083018461178d565b92915050565b7f4e487b7100000000000000000000000000000000000000000000000000000000600052602260045260246000fd5b60006002820490506001821680611c5557607f821691505b602082108103611c6857611c67611c0e565b5b50919050565b6000604082019050611c836000830185611774565b611c906020830184611774565b9392505050565b600081519050611ca681611980565b92915050565b600060208284031215611cc257611cc16116d5565b5b6000611cd084828501611c97565b91505092915050565b60008160601b9050919050565b6000611cf182611cd9565b9050919050565b6000611d0382611ce6565b9050919050565b611d1b611d1682611762565b611cf8565b82525050565b6000819050919050565b611d3c611d3782611783565b611d21565b82525050565b6000611d4e828a611d0a565b601482019150611d5e8289611d2b565b602082019150611d6e8288611d0a565b601482019150611d7e8287611d2b565b602082019150611d8e8286611d2b565b602082019150611d9e8285611d0a565b601482019150611dae8284611d0a565b60148201915081905098975050505050505050565b7f4e487b7100000000000000000000000000000000000000000000000000000000600052601160045260246000fd5b6000611dfd82611783565b9150611e0883611783565b9250828201905080821115611e2057611e1f611dc3565b5b92915050565b7f4e487b7100000000000000000000000000000000000000000000000000000000600052604160045260246000fd5b60008190508160005260206000209050919050565b60006020601f8301049050919050565b600082821b905092915050565b600060088302611eb77fffffffffffffffffffffffffffffffffffffffffffffffffffffffffffffffff82611e7a565b611ec18683611e7a565b95508019841693508086168417925050509392505050565b6000819050919050565b6000611efe611ef9611ef484611783565b611ed9565b611783565b9050919050565b6000819050919050565b611f1883611ee3565b611f2c611f2482611f05565b848454611e87565b825550505050565b600090565b611f41611f34565b611f4c818484611f0f565b505050565b5b81811015611f7057611f65600082611f39565b600181019050611f52565b5050565b601f821115611fb557611f8681611e55565b611f8f84611e6a565b81016020851015611f9e578190505b611fb2611faa85611e6a565b830182611f51565b50505b505050565b600082821c905092915050565b6000611fd860001984600802611fba565b1980831691505092915050565b6000611ff18383611fc7565b9150826002028217905092915050565b61200a826117b7565b67ffffffffffffffff81111561202357612022611e26565b5b61202d8254611c3d565b612038828285611f74565b600060209050601f83116001811461206b5760008415612059578287015190505b6120638582611fe5565b8655506120cb565b601f19841661207986611e55565b60005b828110156120a15784890151825560018201915060208501945060208101905061207c565b868310156120be57848901516120ba601f891682611fc7565b8355505b6001600288020188555050505b505050505050565b82818337600083830152505050565b60006120ee83856117c2565b93506120fb8385846120d3565b612104836117fd565b840190509392505050565b600060a0820190506121246000830189611774565b612131602083018861178d565b61213e604083018761178d565b61214b606083018661178d565b818103608083015261215e8184866120e2565b9050979650505050505050565b6000819050919050565b612186612181826116df565b61216b565b82525050565b60006121988285612175565b6020820191506121a88284611d0a565b6014820191508190509392505050565b7f4e487b7100000000000000000000000000000000000000000000000000000000600052601260045260246000fd5b60006121f282611783565b91506121fd83611783565b92508261220d5761220c6121b8565b5b828204905092915050565b600061222382611783565b915061222e83611783565b925082820261223c81611783565b9150828204841483151761225357612252611dc3565b5b5092915050565b60006122668286611d2b565b6020820191506122768285611d0a565b6014820191506122868284611d2b565b602082019150819050949350505050565b60006122a282611783565b91506122ad83611783565b9250826122bd576122bc6121b8565b5b828206905092915050565b60006122d382611783565b91506122de83611783565b92508282039050818111156122f6576122f5611dc3565b5b92915050565b600081905092915050565b50565b60006123176000836122fc565b915061232282612307565b600082019050919050565b60006123388261230a565b9150819050919050565b60006040820190506123576000830185611774565b612364602083018461178d565b9392505050565b60006060820190506123806000830186611774565b61238d6020830185611774565b61239a604083018461178d565b949350505050565b60006020820190506123b76000830184611774565b92915050565b7f4e487b7100000000000000000000000000000000000000000000000000000000600052602160045260246000fd5b600060ff82169050919050565b612402816123ec565b82525050565b600060808201905061241d6000830187611b13565b61242a60208301866123f9565b6124376040830185611b13565b6124446060830184611b13565b9594505050505056fea2646970667358221220b69d8e563b9c68db822b8d8928502ac446977136004a5f257efa9f9e46e9cf3b64736f6c63430008140033",
  "linkReferences": {},
  "deployedLinkReferences": {}
}